:100000000C94580E0C94800E0C94800E0C94800E60
:100010000C94800E0C94800E0C94800E0C94800E28
:100020000C94800E0C94800E0C94800E0C94800E18
:100030000C94800E0C94800E0C94800E0C94800E08
:100040000C94EA2B0C94800E0C94800E0C94800E71
:100050000C94F42A0C94800E0C94800E0C942E2A8E
:100060000C94800E0C94800E0C94800E0C94800ED8
:100070000C94800E0C94800E0C94800E0C94800EC8
:100080000C94932A0C94800E0C94800E0C94800E89
:100090000C94800E0C94800E0C94800E0C94800EA8
:1000A0000C94800E0C94800E0C94800E06073C0677
:1000B00018110410FF0003100001031001020210C8
:1000C00002020310FF000414FF0006073C0518128B
:1000D0000410FF00031000010310010202100202CD
:1000E0000310FF000607320418110510FF0003106B
:1000F0000002031001020210020206063204181068
:100100000310FF000310000103100101021002019F
:1001100006073204180E030CFF00030C0001030C49
:100120000102021002020607280620120310FF0037
:100130000310000103100102021002020310FF006D
:100140000414FF000607280520100410FF00031008
:10015000000103100102021002020310FF00060753
:100160002804200F0310FF000310000203100101F8
:10017000021002020606280420110310FF000310DB
:1001800000010310010202100201060728042010DA
:10019000030CFF00030C0001030C01020210020219
:1001A0000506190420100410FF00031000010310BD
:1001B0000101021002010310FF00050619042010BE
:1001C0000310FF00041000020310010102100201DD
:1001D0000506190320160410FF0003100001041087
:1001E000010105051903200F0510FF00031000028F
:1001F0000210010105051903200B0310FF00031075
:1002000000020210010104050F0420170410FF0072
:10021000041000010310FF000310FF0004050F0588
:1002200020100210FF000310000104100101031050
:10023000FF000310FF0004050F0420100210FF0050
:1002400003100001041001010310FF0004050F0357
:10025000180A0410FF000310000202100101040537
:100260000F0320070310FF0002100002021001011B
:100270004D4F52414C7E535550504F52543A7E4A46
:100280004553534943410054455354494E473A7EE0
:10029000545558494E41544F523230303900207E27
:1002A00047524150484943533A7E56414D50495276
:1002B00049435320002020444556454C4F50455259
:1002C0003A7E46494C4D4F544500204359424552D1
:1002D0004841434B3A2050504F547E323032310027
:1002E0002D7E534F4C447E4F55547E2D0A004D4F6A
:1002F00056452048455245004841434B494E470A20
:1003000043594245524445434B530A5341564500D5
:100310004445434B7E563320004445434B7E563282
:1003200020004445434B7E563120004E4F7E4445CD
:10033000434B20004F460042414C414E4345005440
:100340004F4F4B00434F4E47524154554C41544937
:100350004F4E5321004F5645522100495300484506
:1003600052450054494D4500554E464F5254554E46
:100370004154454C592C00414E59004146464F527C
:10038000440043414E4E4F5400434F4E54494E5546
:10039000450053574150004F520050555243484179
:1003A000534500434F4D504C455445442E00424563
:1003B000454E004841434B53004F4E434500465580
:1003C00052544845522E00414C4C4F5700474F4F16
:1003D000442E00414E44005345525645525300426C
:1003E0005900444F4E452E0048415645005448455B
:1003F0005900504159004241535441524453004323
:100400004F52504F0054484F5345004D49474854B0
:10041000004841434B494E470052454D4F5445001B
:10042000535455434B2C00414D0049460043415520
:100430004748542E0047455454494E4700544845B8
:1004400052450055504752414445532E00534F4D9D
:10045000450053484F50532E004C45542753004FEE
:1004600055542E004D450048454C5000434F4E54C6
:100470004143540046494E4400484F5045004845CA
:1004800052452E004C4556454C004C4F57455200A6
:1004900050454F504C45005249474854005041592F
:1004A000494E47005748454E0050524943452E009B
:1004B0004E414D452E2E00434C4541520043414E86
:1004C00000484500444F574E2E005448454D0053B8
:1004D000454C4C00544F4441592E00554E434F5605
:1004E0004552004D55434800484F57004855525417
:1004F000532E00574845524500484954004C455436
:100500002753004649474854210041005749544861
:100510004F555400484F4D450047455400455645FA
:100520004E0043414E27540048454C4C2C00574840
:100530004154004D4F52450053595354454D5300BB
:100540005448454952004841434B004C414D4553A6
:10055000542E004E43504427530041564F49440007
:10056000494E54454C004A55535400484F4D452E72
:10057000004954004D414B450054455252592C00FE
:100580004E4F57005348495421004F574E00594F82
:10059000555200574954480057494C4C00494E5455
:1005A000454C210054484500464F5200594F5500D4
:1005B0005448414E4B004C4556454C21005448523E
:1005C000454154004D5900474F4553005550005484
:1005D0004849532E005448524F554748004252450F
:1005E0004143480050455250415245440057415301
:1005F0004E27540044414D4E2C00434F5354532139
:1006000000414C4C00415400444F574E00434F5260
:100610005000544841540054414B4500544F004E43
:100620004545440049000A00D5F08D14A1C881CF8A
:10063000D9F1AF200002021C1E0A100000204080E9
:10064000868687C6CF00000000061E1E1F5F5F2241
:1006500022FFFF0703010000000000004000C8B8AF
:10066000F8F8F8F8F8F8F8F8F8F8F8F8F080010376
:1006700007FFFFFFFFF000000000000000E0F0F4C3
:100680007C180001FFFCFDF1F1F0F2FAFFFFFF0022
:1006900000C0FFFFFFFFFFFFF8E0000000000000C8
:1006A00001004000889C9C9F9DBFFFFFFFFFFF7FD4
:1006B0009BEFF0FFFFFFFFFFFF7F8F77030000003E
:1006C0000000000000000C3C3E3FBFBFDFDFCF87D3
:1006D0000340A143871F7FFFFF03030202020202C0
:1006E00002020202020202020202020202020202EA
:1006F00002020202020202020202037E000102035F
:10070000040500060708090A200322232400250205
:1007100003270028290203222324002A2B2C180057
:100720002D1A2E192F300031323334350036373838
:1007300019063900233A3B3C1B013D003E01022DC6
:1007400026033F000304404101020332032100421B
:10075000434413450018354647481949004A0143A8
:100760004B1300144C4D4E011B4F050050035152CA
:1007700053543203195500010256570257250200FF
:100780000332583400595A5B015C5D5E005F605172
:1007900052005361626300020364182E00656667AD
:1007A000685F2B690001434F266A003F23036C52A8
:1007B00003002A406D6E01662E01020100430440D1
:1007C0000718006B0B010C0D00030E0F1000111227
:1007D000131415161718191A00011B041707001C0B
:1007E0001D1E1F096F66700071037500727374001F
:1007F00057096F71007917007677780057791D00D7
:100800007A7B7C7D7E00096F7100177F19060700D7
:100810001C3580810B0D0D0C08070B100E0B0A0CFC
:100820000C0D150F0F100E0C07100A080101010125
:1008300000000100000154415247455420004D4F33
:100840004E45590053544154555320202020202018
:1008500020204841434B00FFFFFFFFFFFFFFFFFF4A
:10086000FFFFFFFFFFFFFFFFFFFFFFFFFFFFFFFF98
:10087000FFFFFFFFFFFFFFFFFFFFFFFFFFFFFFFF88
:10088000FFFFFFFFFFFFFFFFFFFFFFFFFFFFFFFF78
:10089000FFFFFFFFFFFFFFFFFFFFFFFFFFFFFFFF68
:1008A000FFFFFFFF1F1F1F1F1F1F1F1F1F1F1F1FD8
:1008B0001F1F1F1F1F1F1F1F1F1F1F1F1F1F1F1F48
:1008C0001F1F1F1F1F1F1F1F1F1F1F1F1F1F1F1F38
:1008D0001F1F1F1F1F1F1F1F1F1F1F1F1F1F1F1F28
:1008E0001F1F1F1F1F1F1F1F1F1F1F1F1F1F1F1F18
:1008F0001F4D0D005E0202F252F202F2020202F2FB
:10090000020202020202F242F202F252F202F21277
:100910001202F242B2027252D202020202F25212E7
:100920000202F20202F212F20202F202027252D247
:1009300002F242F202F2521202F212E202025E00ED
:100940000009080809080908090909080909090826
:10095000080808090809080908090809090908090F
:100960000809080909090808080809080808080901
:1009700008080908090808090808090909080908F0
:100980000908090909080909080808090043414E2E
:100990004E4F54204D4F5645004255464645522035
:1009A00046554C4C00444953434F4E4E45435445E5
:1009B0004400FFFFFFFFFFFFFFFFFFFFFFFFFFFF01
:1009C000FFFFFFFFFFFFFFFFFFFFFFFFFFFFFFFF37
:1009D000FFFFFFFFFFFFFFFFFFFFFFFFFFFFFFFF27
:1009E000FFFFFFFFFFFFFFFFFF1F1F1F1F1F1F1F37
:1009F0001F1F1F1F1F1F1F1F1F1F1F1F1F1F1F1F07
:100A00001F1F1F1F1F1F1F1F1F1F1F1F1F1F1F1FF6
:100A10001F1F1F1F1F1F1F1F1F1F1F1F1F1F1F1FE6
:100A2000370D005E0202020202020202020202020C
:100A30000202020202020202020202020202020296
:100A40000202020202020202020202020202020286
:100A5000020202020202025E0000090808080808F9
:100A60000808080808080808080808080808080806
:100A700008080808080808080808080808080808F6
:100A800008080808080808080808080808080900ED
:100A90005E024C0236021C020602F401E201D001A1
:100AA000BA01A0018A0174015E014401260110010E
:100AB000FA00E400CA00AC00B8014D014A019A02F4
:100AC00088014D0126014D0100004D0188019A0267
:100AD0004A01E8034A014D0100004D01B8014D01F2
:100AE0004A019A0288014D0126014D0100004D0185
:100AF00088019A024A01E8034A01E80300004D0117
:100B0000B8014D014A019A0288014D0126014D01AB
:100B100000004D0188019A024A01E8034A01E803F6
:100B200000004D01B8014D014A019A0288014D01B2
:100B300026014D0100004D0188019A024A011D095C
:100B400000800409010001010100010110035000AF
:100B50005D01500000805D015000100350000080D6
:100B6000040407030100080C0105010501020458F3
:100B7000000000000000000B0A020100010100015A
:100B80000101000142554646455200090801294528
:100B900011452901391133077F41757D7F41754129
:100BA0007F7F417F7F415F5F7F41555D7F415D6317
:100BB0007F7F7F5D496363495D7F7F7F7F7F7F7F2D
:100BC0007F7F7F7F7F7F7F7F7F7F7F33077F7F4137
:100BD0007F7F417D417F5155457F7D417D7F4175BF
:100BE000417F415F5F7F415F5F7F41555D7F415D39
:100BF000637F7F7F674F6773797D7F7F7F7F7F7F95
:100C000030302E30300054494D453A004841434B76
:100C100053000608F804323101010208B700060942
:100C20000001010001000001010001000A00070DA0
:100C3000002E6B3A000014061B0F1B06000A4C4FD7
:100C4000414400544552525920422E00290A7E2028
:100C50004E4F004C4F5745527E5448524541547EAA
:100C60003130250A7E2059455320280043594245FA
:100C7000524445434B530003080707070708002861
:100C80002C2E2C280088013C0000003C0088013CF0
:100C90000000800219FE00FF00960000000219000B
:100CA000FE00FF00960000172000000080E0F8FC26
:100CB0007E7E3F3F1F3F3F7E7EFCF8E080000000CD
:100CC00080200C0301000000040400B0E0C4C4E074
:100CD000000001030C2080BC0000000000C00000E8
:100CE00000003D3F1F0F03C00000000000BC8090CB
:100CF0009C989A9D99999488908490889499999DAC
:100D00009A989C90800128FFFFFF6F050328FF0041
:100D1000FF7F00FFCB00FF2D00B70500040128FF77
:100D20007FCB2D0520534146450A484F555345007A
:100D30005448457E534C554D530A444953545249E7
:100D4000435400434F4D4D45524349414C0A2020E6
:100D50004449535452494354001F2E0000000000E0
:100D60000000E05088248850600080000000F814E3
:100D700022C12214F80000000000600020408853C7
:100D8000204788103F00FC0A11E4118A5C2192245C
:100D90004F842241800080402000000000000102BA
:100DA000058845224488112247801F2142FC723960
:100DB0001F804022110A0400000000000000003FD4
:100DC0004284F9E472BF000500F12844923992444C
:100DD00028F00000000000000000000000000000FB
:100DE0000011284482010204FF00FE00FF5000545D
:100DF000FF000000000000000000000000000000F4
:100E000000000000000000010204081F0D0603019D
:100E100000000000002C270E1DFAFC001108040041
:100E200000000000000000000000F0284492299219
:100E30004428F00000000000C0A010A0C0003874DA
:100E4000E2743802000301000000008040800000CE
:100E50008000E050A8100F183060FF5820168F4017
:100E600020100810214387031D3A713A1C0000002E
:100E700000000000FC0A1124CA24118AFD010A1591
:100E80002A55EA1438000000020940000000000062
:100E900000000081000000800008001020040A0407
:100EA00003860C983F16080583000070E8C4E870BC
:100EB00080408000000000000000000000000000F2
:100EC000000000000000000000000000000201021D
:100ED0000000000000010204081120470E1C0E074C
:100EE0000000000000000000000000000000000002
:100EF000000000272D00000000000000000000009E
:100F000000F028448201824428F000000000000024
:100F100000000000000000000000000000000000D1
:100F20000000000000804020172040807F00520019
:100F30007F800000000000000000000000000000B2
:100F40000000000000000000000000FF020408F0A4
:100F500008844201F815224180412214F80000C0A3
:100F6000A0408000000000008000000000000000A1
:100F700000001F2080402F55AA3500FF000000FF11
:100F8000A854AAFF00003F83470E1DFAFC00110879
:100F9000043AF4F80022110800FE458812E712888E
:100FA000C5FE881122448F4623118844221108046B
:100FB0000200030100000000000703000000000021
:100FC0000103060C1F0F07030100010204080402BD
:100FD000010000000000000000000000000000020E
:100FE00008D4D205077F7F3E1C08411FFE0105F192
:100FF000F1F111D1B1D111F1515151515151515121
:101000005151515151510000FF00007F7F09090FDC
:1010100006007F7F19396F46007F7F4949414100B3
:10102000266F49497B3200266F49497B32FF000019
:10103000FFFFFFFEFFFEFF0279CD95A5CD790111DF
:10104000111101F9F901010000FF00007F7F09097A
:101050000F06007F7F40404040007C7E0B0B7E7C73
:1010600000070F78780F0700000000000000FF0065
:10107000001F3F3F33333333333E36363E363E3642
:101080003E36363E36363E360000FF00003E7F419B
:10109000417F3E007F7F0E1C7F7F0000000000002C
:1010A0000000000000000000000000000000003F01
:1010B0004050404040784641415959414141415991
:1010C00059414141414141414100007F000001013E
:1010D0007F7F0101007C7E0B0B7E7C007F7F0909F6
:1010E0000F06007F7F4949414100000000000000D9
:1010F0000D083F353537353D353D353F31313F11F1
:101100001400FFFFFF0703000000000000000000C4
:101110000000405E405F4040404040404040404012
:101120004040000007000700000000000000000031
:10113000000700000C14FFFEFDFDFEFFFEFDFDFE9E
:1011400000FF9F3FFFFFFFFFFF3F80BE00FF020049
:101150000707070707000707000729050004020E15
:10116000020E020E020E020E020E020E020E020EFF
:10117000020E020E020E020E020E020E020E020EEF
:10118000020E02040000FFFFFFFFFFFFFFFFFFFF53
:10119000FFFFFFFFFFFFFFFFFFFFFFFFFFFFFFFE60
:1011A000FEFEFEFEFEFEFEFEFEFCF8F000000E0F50
:1011B000FFFFFFFFFFFFFFFFFFFFFFFFFFFFFFFF3F
:1011C000FFFFFFFFFFFFFFFFFFFFFFFFFFFFFFFF2F
:1011D000FFFFFFFFFFFE0E0000FFFFFFFFFFFFFF0F
:1011E000FFFFFFFFFFFFFFFFFFFFFFFFFFFFFFFF0F
:1011F000FFFFFFFFFFFFFFFFFFFFFFFFFFFFFF00FE
:101200000000FFFFFFFFFFFFFFFFFFFFFFFFFFFFEC
:10121000FFFFFFFFFFFFFFFFFFFFFFFFFFFFFFFFDE
:10122000FFFFFFFFFFFFFFFF000000FFFFFFFFFFCB
:10123000FFFFFFFFFFFFFFFFFFFFFFFFFFFFFFFFBE
:10124000FFFFFFFFFFFFFFFFFFFFFFFFFFFFFFFFAE
:10125000FF000000FFFFFFFFFFFFFFFFFFFFFFFF9B
:10126000FFFFFFFFFFFFFFFFFFFFFFFFFFFFFFFF8E
:10127000FFFFFFFFFFFFFFFFFFFF00293000007AA5
:10128000727A7A727A7A727A7A727A7A727A7A72EE
:101290007A7A727A007A00F804F494949494F404BC
:1012A0000408F0000000000404F4F5F4F4F4F4F48D
:1012B000F4F4F4F4F4F4F4F4F4F474F5F41414140D
:1012C000151401AAAA01151514141415F40400002C
:1012D0000000FF7FFF7FD052D252D252D252D25260
:1012E000D07FF06FF0F6062006A026A0A6A6A0A04C
:1012F000A0A0808000FF0000000000FFF8FFF83F82
:10130000181F181F181F181F183FD83FF8FFFF009D
:1013100000F0E0D0D6E0F6E6D6D6E606F600FF000E
:1013200000000000FFFFFFFF0000000000000000C1
:10133000000000FF00FFFFFF0000FFFFFFFFFFFFB7
:10134000FFFF0FEF00FF00FF0000000000FFFFFFA6
:10135000FF0000000000000000000000FF00FFFF91
:10136000FF000029037F7F7F7F7F03787B007F0062
:10137000FF0000101301FE01FEFE807EEAFEFEFE6D
:10138000FE01FE000100FF00FFFFFFFEBDF30FFFA7
:10139000FF00FF0000000700030303030203000334
:1013A000030007000001FE0180000000007EEAFE4D
:1013B000FE01FE000100FF00FFFEBCF00000010383
:1013C0000F00FF00000007000303020300000000FD
:1013D000000007000001FE01000000000000007E88
:1013E000EA01FE000100FF00BCF000000000000068
:1013F0000100FF00000007000203000000000000E1
:10140000000007000001FE010000000000000000D5
:101410000001FE000100FF000000000000000000CD
:101420000000FF00000007000000000000000000B6
:1014300000000700001110C1BEAAAAAAAABAAABA3F
:10144000AEAABEAAAAAABEC1FFFFFEFEFEFEFEFE17
:10145000FEFEFEFEFEFEFEFFFFFFFFFFFFFFFFFFA3
:10146000FFFFFFFFFFFFFFFFFFFFFFFFFFFFFFFF8C
:10147000FF062000FFFF00FF0000FFFF00FF00004D
:10148000FFFF00FF0000FFFF00FF00E0F0F8FCFEA0
:10149000FF1F0F0F1F3F3F3F3F3F3F3F3F1F0614C0
:1014A0000800E0F018EC160E0606061616161616BC
:1014B0001616160600200B010D0D0D0D0D0D0D0D50
:1014C0000D0D0D0D0D0D0D010D0D0D0D0D0D0D0D58
:1014D0000D0D0D0D0D0D0D05050505050505050584
:1014E00005050505050505050505050505050505AC
:1014F0000505050505050506081E111F1F000A053F
:10150000083F293F00140FFFFFFFFF1E00030303E6
:101510000300060A0006B6BE0C0000000101000030
:1015200011082854AA55AA552A542A5428142814B4
:10153000081008142A55AA55AA542A542A14281403
:101540002810081008100814281428542A542A5562
:10155000AA55AA5428100810281428142A542A54CA
:10156000AA55AA552A14FFFFFFFF01010101040932
:1015700000DEDE00000000003C7EFFFFFFFFFFFFFB
:10158000FFFEFCF800000101010101010101010061
:10159000F8FCFEFFFFFFFFFFFFFF7E3C00010101A3
:1015A00001010101010100000C09003C42A2A2A2BC
:1015B000A2824204F80000000001000100000001C6
:1015C000000000F8044282A2A2A2A2423C00000055
:1015D00001000000010001000000001C3EFFFFFFB1
:1015E000FFFFFEFEFCF8F03078F0FEFFFFFFFFFF8C
:1015F000FFFFFF29000001010101010101010101BB
:1016000001F0F8FCFEFEFFFFFFFFFF3E1C0029FF7C
:10161000FFFFFFFFFFFFFFFEF07830010101010136
:1016200001010101010100000D1100001C22D25234
:10163000D2A2048408F000003020800E46CE0E09AD
:1016400030BA290000000001000001010000000183
:101650000000F0088404A2D252D2221C000000290B
:10166000BA30090ECE460E80203000000100000086
:101670000101000001000000183CF8FEFFFFFFFF21
:10168000FFFFFFFE9C0000E8FCFDFFFFFFFFFFFFE8
:10169000FFDF8C000000D8FEFFFFFFFFFFFFFFCE43
:1016A00080000018FCFFFFFFFFFFFFFFFF5F0C0043
:1016B000009CFEFFFFFFFFFFFFFFFEF83C18008CC1
:1016C000DFFFFFFFFFFFFFFFFDFCE8000080CEFF14
:1016D000FFFFFFFFFFFFFED80000000C5FFFFFFFD2
:1016E000FFFFFFFFFFFC18000E08001810C00622C5
:1016F000E68606185E9400000000680015704584B8
:101700001A18538C0000000000D80622E69A1A101E
:101710004E800000000018D0067246060A28420CCF
:1017200000000000945E180686E62206C01018002D
:1017300000008C53181A84457015006800000000E2
:10174000804E101A9AE62206D800000000000C42D3
:10175000280A06467206D01800000C7EFFFFFFFF25
:10176000FFFFFFFEFCF80000010101010101010182
:101770000100F8FCFEFFFFFFFFFFFFFF7E0C0001F2
:10178000010101010101010100000C09000C52726C
:1017900092D2F2824204F800000000010101000030
:1017A0000001000000F8044282F2D29272520C0052
:1017B0000000010000000101010000000A0F0014F8
:1017C0004211010111421400000A41400000404151
:1017D0000A00000070F8FCFCFCFCFCFCFCF8F0E0EB
:1017E00000C0E0E3F7FFFFFFFFFFFFFFF7E30000AC
:1017F000010101010101010101010101E0F0F8FC19
:10180000FCFCFCFCFCFCF8700000E3F7FFFFFFFFB2
:10181000FFFFFFF7E3E0C000010101010101010149
:101820000101010100000E11000000304848C848C5
:1018300048C80810E0000000C080032405A7323328
:101840004275A2000000000001000001000001003C
:10185000010000E01008C84848C8484830000000AF
:1018600000A275423332A705240380C000000001A6
:101870000001000001000001000000000D1000FE4A
:10188000766676FE0252525202FE00007F434743C4
:101890007F00410141007F00594F557E4841564528
:1018A0007E4245454E7E43415054555245442100A9
:1018B00040E0F8FCFC5C5EFF5E5CFCFCF8E0400095
:1018C00000030707070F1F0F0707070300000F0D8F
:1018D000004040F84808085E080848F8404000000A
:1018E0000000030202020F020202030000000008CF
:1018F000080688015000AF0050000080AF003C0097
:1019000000805D013C0000805D0114000080001D2E
:1019100011110C12110C0E1F0C0E1F150E2D150699
:101920002D1B0A3705173705174E051A4E1A126078
:101930000E0D600E13730E1403030205020A051048
:101940001C1F1C1001071F0701484F4C442020207A
:101950007E424F4F544C4F414445520050524553E4
:10196000537E2741277E544F7E42524541434800D3
:101970007618000000000000000000000000008059
:1019800080C0C0E0E070703838180C0C0E0E0400F7
:10199000000000000000000080C0E070380C020170
:1019A0000000000000000000000000000000000037
:1019B0000000000000000000000080C0F87E0F075B
:1019C00001C0E0781E0703000000000000000000D6
:1019D0000000000000000000000000000000808007
:1019E00040402010000000002020707078787C7C3F
:1019F0007E7E7E7F7F7B7B3939393838383838387E
:101A000038383890CEFE38BCDEE6F2FCEEE7733BA9
:101A10003E1ECEE6FAFCDEDEDADA5A5A0AC2FAFCDA
:101A20003E767272FAFADEDECE86868684E0F83E74
:101A30000F0785E4FC7C1FC7E3F8FE3E4EE6FE7E02
:101A4000E6F8FC9E82C286C6F87C3E3F7B7CECE4D6
:101A5000C686030101000000000000000000000035
:101A60000000000000000000000000000000000076
:101A7000000080402030180C0F0701000000010119
:101A8000010101000000000001010101010000004E
:101A90000000030703000000000000000101010135
:101AA000111E0F0301101C1E0F070100000103038C
:101AB0000000000301000001010101000303010017
:101AC00000000000000101030306040C08101020B0
:101AD000204040800601010001000100140E0000BA
:101AE000000000000000000000000000000080C0B6
:101AF000E0F0202020202020202020202020202056
:101B000022222222222203081F051F1F151B1F113C
:101B1000111F110E1F15111F05011F111D1F041F7D
:101B2000001F0010101F1F041B1F10101F061F1F77
:101B3000011F1F111F1F05071F311F1F051B171531
:101B40001D011F011F101F0F100F1F0C1F1B041B57
:101B5000071C071915131F111F001F001D15171152
:101B6000151F07041F17151D1F151D01011F1F1528
:101B70001F17151F001700001000000A001904139A
:101B8000201000000300000E11110E0004040418C0
:101B90000403260624061F061C06170612060D0659
:101BA000080605060106FA05F405ED05E405DD0560
:101BB000D505CF05CC05C705C405BD05B605B005DF
:101BC000AC05A805A4059D05980593058E058A0515
:101BD000840580057905740571056B05660560054A
:101BE0005A0553054B0546054005380533052E05B6
:101BF000280522051D05190514050C050A05030510
:101C0000FD04F904F304EC04E804E304DB04D40465
:101C1000CF04CA04C404C104BD04B704B004A904B9
:101C2000A4049D04970490048A0484047E04790427
:101C300074046C04670464045F04590452044D0482
:101C400043043D0435042D042A0427042004190408
:101C500011040B040504FF03F603F203ED03E8038C
:101C6000E203DF03D703D303CD03C703BE03B903E6
:101C7000B303AE03A3039A0397039203890382037A
:101C80007B037703680363035E035B03550344032D
:101C90003F03370334032B03220319031003F80215
:101CA000EE02E002CA02B5029E02870270020E2C0A
:101CB00011241FBECFEFDAE0DEBFCDBF12E0A0E0FF
:101CC000B1E0EEEDFEE602C005900D92AC30B1073A
:101CD000D9F727E0ACE0B2E001C01D92A330B20713
:101CE000E1F71EE0C8E5DEE004C02197FE010E9496
:101CF0006737C735D107C9F70E944E2C0C946D3752
:101D00000C940000109255061092560610925A0636
:101D10001092CF068FEF80935C0680935D068093D0
:101D20005E0680935F06809360068093610690E074
:101D300080E03FEFFC01ED59F94F26E0319333A3EA
:101D40002150E1F7069684329105A1F7089580911C
:101D50004F0683FD06C080914E0683FB882780F9DD
:101D6000089580E008959C0180E090E09617B8F413
:101D70008417A8F4E92FF0E0E45AF94F70819F5FCF
:101D8000F901E80FF11D5081751306C08F5F6917C7
:101D900039F04813EBCF0895981B80E0E7CF80E03F
:101DA0000895EFE3F2E081118FEF00248193819396
:101DB000819381930394D1F70895AF92BF92CF920C
:101DC000DF92EF92FF920F931F93CF93DF936C01FB
:101DD0007B018B01040F151FEB015E01AE18BF08DC
:101DE000C017D10759F06991D601ED91FC9101908E
:101DF000F081E02DC6010995892B79F7C501DF91A6
:101E0000CF911F910F91FF90EF90DF90CF90BF90F7
:101E1000AF900895ABE3B2E02FB7F8947D918D9128
:101E20009C9166B52FBFA89B05C06F3F18F47F5FDC
:101E30008F4F9F4F22E0660F771F881F991F2A95AB
:101E4000D1F70895089520912B02E0912902F09195
:101E50002A02CF01029690932A028093290222231C
:101E600019F0859194910895808191810895E1E719
:101E7000F0E080818D7F8083109291004698479892
:101E8000109228020895CF92DF92EF92FF92CF93A3
:101E9000DF930E94230F811520E8920741F4DF9120
:101EA000CF91FF90EF90DF90CF900C94370F21E00F
:101EB00020932802813020E8920751F48091260275
:101EC0009091270290932A02809329020E94230F67
:101ED00097FD05C020912502222309F45BC02091C3
:101EE0002402211157C021E020932C02EC01DF775E
:101EF000209709F052C081E080932D0246983FE977
:101F0000C32E3FE0D32EE12CF12CCAEFD0E0E091BC
:101F10002202F09123020995811103C081E0809390
:101F20002D0280912C02882329F080912D02882394
:101F300009F446C047980E94230F009709F444C053
:101F40009C01DE010E942437DC01CB0129E0B5951C
:101F5000A795979587952A95D1F7109290002AE03A
:101F600020939100D0929900C092980080932E0205
:101F700090932F02A0933002B093310280917100B0
:101F8000826080937100DF91CF91FF90EF90DF909E
:101F9000CF90089510922C02A9CF9E0150E040E00E
:101FA00060E472E48FE090E00E94D03669017A012B
:101FB00081E0C81AD108E108F10810922D02A7CFDC
:101FC0004699B8CF479AB7CF8FEF9FEFDC01C5CFC7
:101FD0009C01E1E7F0E090819D7F908381E0809318
:101FE0002B0230932A022093290230932702209358
:101FF00026020C94430F6F927F928F929F92AF9222
:10200000BF92CF92DF92EF92FF920F931F93CF93E5
:10201000DF934C01CB013A017C2DFA01649131969A
:102020005491F2E06F0E711CC62FD0E0211102C056
:10203000EE2009F1E1E0F0E0352F377011F4F0E027
:10204000E0E0A52FA695A695A695AE0FBF2FB11DD2
:10205000AC9FF001AD9FF00DBC9FF00D11247330CB
:1020600009F08BC0EE0FFF1F2E9FD0012F9FB00DE8
:1020700011246A0E7B1ED401AC0FBD1F1A161B065D
:102080000CF06CC020E8821691040CF067C09C0133
:10209000250F311D121613060CF060C08034910517
:1020A0000CF05CC06114710409F458C0382F37700B
:1020B000FC0197FD379623E0F595E7952A95E1F722
:1020C0002E2F97FF04C0332311F02FEF2E0FEE2792
:1020D000FF27E819F90997FC02C0F0E0E0E090E87A
:1020E0009819A038B1050CF4962F9E1BA22F022E32
:1020F000000CBB0B4A2F40952F3F0CF040E0DD2435
:10210000D394852F877009F4D12C56955695569502
:10211000D50EAD0DB11D19971CF058E0D52ED21A71
:10212000D41A240F50E82503D0011124A80DB91D9D
:10213000AE0FBF1F649FE00DF11D11246E0E7F1EB8
:10214000E32E032E000CFF08733009F423C108F5B9
:10215000713009F4D6C0723009F484C0DF91CF9198
:102160001F910F91FF90EF90DF90CF90BF90AF90B5
:102170009F908F907F906F9008950115110509F43D
:1021800073CFEE9ED001EF9EB00D11240A0F1B1FDE
:102190006BCF7A3FB1F10D2D020F7B3FF9F620177F
:1021A000E9F2BD01615C7D4FD12CC12CC91608F04C
:1021B000A2C0F301EC0DFD1DE491F0E0AF010E2C87
:1021C00002C0440F551F0A94E2F727FD06C0FB0129
:1021D0008081142F109581238083332361F0273071
:1021E00054F45B01F0E8AF0EB11C452F4095F501AA
:1021F000808184238083FFEFCF1ADF0A6F5F7F4FD8
:10220000D5CF0D2D020F201709F4A8CFBD01615CB9
:102210007D4FD12CC12CC91608F067C0F301EC0D1D
:10222000FD1DE491F0E0AF010E2C02C0440F551FDC
:102230000A94E2F727FD04C0FB018081842B808390
:10224000332351F0273044F45B01F0E8AF0EB11CAA
:10225000F5018081852B8083FFEFCF1ADF0A6F5F46
:102260007F4FD9CF6FEF70E0032E02C0660F771F4C
:102270000A94E2F760957095972E8D2C820E2815A2
:1022800009F46CCF8D01015C1D4FD12CC12CC916F6
:1022900030F5F301EC0DFD1DE491F0E0AF010E2CE3
:1022A00002C0440F551F0A94E2F727FD05C0F8014C
:1022B00080818623842B8083332359F027304CF48C
:1022C0005801F0E8AF0EB11CF50180818921852B02
:1022D0008083FFEFCF1ADF0A0F5F1F4FD8CF2F5F2A
:1022E0006C0E7D1EA058BF4FCACF2F5F6C0E7D1E97
:1022F000A058BF4F88CF2F5F6C0E7D1EA058BF4FD8
:102300004ECF0E0F1F1F8D2D820F281709F426CFD9
:10231000BD01615C7D4FD12CC12CC91698F5F80127
:10232000EC0DFD1DA490B12C0E2C02C0AA0CBB1C00
:102330000A94E2F7A094B094F301EC0DFD1D849093
:10234000912C0E2C02C0880C991C0A94E2F727FDF0
:1023500008C0FB014081E42FEA214E2F4829FB01F0
:102360004083332349F027303CF4FB01E058FF4F12
:10237000A080BA20B928B082FFEFCF1ADF0A6F5FC2
:102380007F4FCBCF2F5F6C0E7D1E0C0F1D1FA058F3
:10239000BF4FBBCFE92EF12CE60DF71DA15CBD4F61
:1023A00060E870E06E197F09CE19DF09AE01440FB5
:1023B000551FC1E0D0E07E01032E01C0EE0C0A944F
:1023C000EAF7192F0D2D892E932ECF93DF93ED0170
:1023D000EF96EF962296A590C590992059F0AE9C65
:1023E0005001CE9C600127302CF4F880D094FD2061
:1023F000FB28F99222233AF0FC90C094FC20FA28A2
:10240000FD920C94041211961A9529F70A9551F031
:10241000182D23951124E40FF11DA60FB11DC60F31
:10242000D11DD9CFDF91CF91112498CECF92EF92C9
:102430000F931F933AEFC32EE12C10E000E00E94AF
:10244000FB0F1F910F91EF90CF900895CF92EF92D5
:102450000F931F9332E0C32EE12C10E000E00E94A6
:10246000FB0F1F910F91EF90CF900895CF92EF92B5
:102470000F931F93F901202FCC24C3948F010E9446
:10248000FB0F1F910F91EF90CF900895BC0190E04A
:1024900080E0AB01FC010E940A0F41505109E109A3
:1024A000F10928F068517C4F8F4F9F4FF6CFAB0159
:1024B000FC010E940A0F641775078E079F07C8F377
:1024C00008958FB18095807F669B88601C9B846097
:1024D00008955C988EBD00000DB407FEFDCF5C9A98
:1024E0000895809121020895480F592F511D141607
:1024F0001506D4F580389105BCF597FF02C090E031
:1025000080E04138510514F040E850E0481BFB01E1
:1025100077FD379633E0F595E7953A95E1F7F6952F
:10252000FE2FEE27F795E795E80FF91FE15CFD4FC9
:102530006770772781E090E001C0880F6A95EAF71D
:10254000382F213041F4415078F08191DF0111970B
:10255000832B8C93F8CF8095415030F09191DF011F
:10256000119798239C93F8CF08956034710510F467
:102570000C947412089520E191E061FD94E060FDF7
:10258000990F62FD9295687F269FD0011124A80FB4
:10259000A15CBD4F8C9140FF03C0892B8C930895A3
:1025A00090958923FBCF8038910528F4603471051C
:1025B00010F40C94BB120895DF92EF92FF920F93E8
:1025C0001F93CF93DF937C01D22E8B01040F111D3B
:1025D000EB0177FF02C0D0E0C0E0C8010134110573
:1025E00014F080E490E0C817D9073CF44D2DBE01EB
:1025F000C7010E94D3122196F0CFDF91CF911F9196
:102600000F91FF90EF90DF900895EF92FF920F935C
:102610001F93CF93DF937C018B01C42FD22F21E036
:102620000E94B512B8016D0F711D6150710921E052
:102630004C2FC7010E94B51221E04D2FB801C701F0
:102640000E94DC12C7018C0F911D21E04D2FB801B3
:102650000197DF91CF911F910F91FF90EF900C9414
:10266000DC12CF92DF92EF92FF920F931F93CF93E2
:10267000DF936B01122FEC017C01E40EF11CCE15EF
:10268000DF0544F4202F412FB601CE010E94DC1259
:102690002196F5CFDF91CF911F910F91FF90EF9091
:1026A000DF90CF9008950895CF92EF920F931F93EC
:1026B000CF93DF93EC016A3079F48D818C838E8126
:1026C0009985890F8E8381E090E0DF91CF911F91F2
:1026D0000F91EF90CF9008958C816E3719F48E5F33
:1026E0008C83F1CF262F6E816F5F2D3209F441C0AC
:1026F00098F42732A1F148F42132C9F1253289F149
:1027000098859D5F8C81890FEBCF293221F128F1CB
:102710002C32B1F728E20FC02A3340F42033C8F43A
:102720002E3219F12F3261F72DE205C02A33D9F08C
:1027300021542A3128F7062E000C770B082E000CA6
:10274000990B3F813130B9F446E05BE10E941612EB
:10275000D7CF2651F0CF2BE2EECF2AE2ECCF29E201
:10276000EACF27E2E8CF26E2E6CF25E2E4CF24E273
:10277000E2CF2CE2E0CF3BEFC32EE12C10E000E0F3
:1027800046E05BE10E94FB0FBBCF0F931F93CF93FB
:10279000DF938C01D0E0C0E0F801EC0FFD1F6491E5
:1027A000662341F08FE396E00E945413892B11F0C9
:1027B0002196F2CFCE01DF91CF911F910F91089515
:1027C000E82FF0E0EE0FFF1FEE56F44E8591949146
:1027D0000C94C513089590E080E00895813F30F493
:1027E000853060F4813040F480E00895853FE0F763
:1027F00094EF981B892F08958150089583E00895E0
:102800000F93CF93DF93C82F80914C0690914D0684
:1028100060EC70E00E943F378234E0F4803408F0CE
:102820004CC0853019F060F4823080F400E028E17B
:1028300040E862E27FE090E080E00E94311306C051
:102840008031A1F38D3391F3873081F3DF91CF9104
:102850000F9108958B34B9F158F48234A1F1855465
:102860008230A0F700E028E040E865E070E0E3CFC8
:10287000863881F1883811F0843841F7D0E0BE0104
:102880006E5F7F4F20E048E290E080E00E94B5124A
:10289000BE016F5E7F4F20E042E38EE190E00E9438
:1028A000B512BE01675E7F4F20E042E38CE390E00B
:1028B000DF91CF910F910C94B5126C2F70E000E076
:1028C00023E040E8B8CF6C2F70E0605F7F4F00E0FE
:1028D00025E0F7CFD0E0BE01695F7F4F20E048E2FE
:1028E0008CE390E00E94B512BE016F5E7F4F20E046
:1028F00042E38EE190E00E94B512BE01675E7F4F19
:1029000020E042E390E080E0D3CF0F9320E04CED55
:102910005AE170E060E090E080E00E94261220E042
:1029200044ED5AE16DE070E089E490E00E942612E7
:1029300020E044ED5AE16EE270E083E390E00E9413
:10294000261220E040E759E161E170E085E090E087
:102950000E94261281E10E94001401E024E040E878
:1029600064E070E084E190E00E94311321E049E4EA
:102970006DE070E090E080E00E94741221E040E899
:1029800069E070E08DE090E00E94741221E040E880
:102990006EE270E087E390E00E94741221E049E16A
:1029A00062E370E090E080E00E94741224E049E16C
:1029B00064E370E090E080E00E9431132BE04DE48E
:1029C00062E370E089E190E00E9405138DE180935D
:1029D00044068093430684E38093450680914C0629
:1029E00090914D066EEF70E00E943F3787FF37C031
:1029F0008CE599E10E94C51320E044ED5AE16EE2B6
:102A000070E083E390E00E9416120E94A70E8823D4
:102A100021F181E08093BC011092C1011092BD01AF
:102A20001092C2011092BE011092C3011092BF0118
:102A30001092C4011092B1011092B0011092B40131
:102A40008DE080939B0110929C0183E180931202A0
:102A50000E94370F82E88093C0000F91089589E4A7
:102A600099E10E94C51320E04DE359E165E370E070
:102A70008EE290E00E941612BFCF1F93CF93DF9398
:102A800000D000D01F92CDB7DEB785E0EAECF1E0D0
:102A9000DE01119601900D928A95E1F71091950152
:102AA000173148F4133108F041C0133028F51130C4
:102AB00048F080E008C0133248F41C31D0F71731D9
:102AC00009F045C081E00E94D10E06C0133209F41E
:102AD00048C01F3F09F445C080919601811146C04E
:102AE0001F5F109395010F900F900F900F900F9014
:102AF000DF91CF911F910895812F8350990BFC0195
:102B0000F595E795F595E79581E090E08C0F9D1F91
:102B1000E80FF91F8081982F990F41E8491B21E0A8
:102B200060E270E090E00E947412D6CF21E045E0B0
:102B300060E270E08EE390E00E94741221E043E0D6
:102B40006FE170E080E490E00E94DC12C5CF20E0ED
:102B500048E359E16FE170E08FE390E00E941612C4
:102B6000BBCF8091110280931202B6CF1150B9CF22
:102B7000EF92FF921F93CF93DF937C01CEE0D9E1D8
:102B800010E0FE0184918E0D9F2D911D3196649170
:102B900070E03196449121E010FD0CC00E94B51206
:102BA0001F5F23961E3069F7DF91CF911F91FF9031
:102BB000EF9008950E94DC12F3CFE2E9F1E09081FA
:102BC00045E0949F9001112420503F4FD901AE5809
:102BD000BF4F11967C936E93129644E24C931196DC
:102BE0008C932A583F4F81E0D9018C939F5F90834B
:102BF0000895E0E0F1E0108A118A158E168E12A673
:102C000013A617AA10AE089580914F068095909153
:102C10004E06892331F081E18093120282E0809395
:102C2000110220E04AEE5FE061E170E080E290E0B6
:102C30000E94261280914C0690914D0660E370E050
:102C40000E943F37843268F4883198F58C30C0F4A4
:102C500020E043EE5FE069E170E08BE590E00C94EA
:102C600026128033A8F720E04FED5FE06CE170E0C2
:102C70008DE290E00E94261241E060E270E015C013
:102C800020E04FED5FE06CE170E08DE290E00E94AB
:102C9000261220E043EE5FE069E170E08BE590E012
:102CA0000E94261241E06EE170E084E390E00C9413
:102CB000BB1241E06FE170E0F8CFCF93DF9320E0EB
:102CC00043EF5EE070E060E083E090E00E94261257
:102CD00020E045E15EE067E170E082E290E00E9482
:102CE000261220E049E55DE060E170E08EE590E0CD
:102CF0000E942612CFE3D6E08CE18D838C831E8266
:102D000083E49DE00E94C5138CE38D838C8389E26C
:102D10008E8380E39DE00E94C5138CE58D838C83B8
:102D200082E08E8384E29DE0DF91CF910C94C51305
:102D30009F92AF92BF92CF92DF92EF92FF920F934A
:102D40001F93CF93DF93142F4AE5111147E6E62E28
:102D5000F12CC82FD0E000E025E2B701CE010E949F
:102D6000311307E5111104E667018FEFC81AD80A7D
:102D70005E0182E0A80EB11C21E0402FB601C50122
:102D80000E94B51295E3992E112311F082E4982E3A
:102D900021E0492DB701695E7F4FC5010E94B51240
:102DA00021E0492DB7016F5D7F4FC5010E94B5122B
:102DB00021E0402FB7016D5D7F4FC5010E94B51224
:102DC00020E04DE15DE0B601CE0101960E942612A1
:102DD000CE01C69611112CC010E000E020E04CE0BE
:102DE0005DE0B601800F911F0E942612CE01885A25
:102DF0009F4F20E045E05DE0B601800F911F0E94EB
:102E00002612B7016C5F7F4FCE01CD9620E047EAD6
:102E10005CE0800F911FDF91CF911F910F91FF9088
:102E2000EF90DF90CF90BF90AF909F900C942612C0
:102E30000DE010E0D3CF5F926F927F928F929F92BE
:102E4000AF92BF92CF92DF92EF92FF920F931F93B8
:102E5000CF93DF93E82E562EF42EC22F862E912C80
:102E6000C82ED12C00E0242F4C2FB401C6010E94A3
:102E7000311354018FEFA81AB80A360182E0680EA8
:102E8000711C4FEF4C0F21E0B501C3010E94B51238
:102E90000F2D10E0B401600F711F6250710921E025
:102EA0004C2FC3010E94B51209511109080D191DBB
:102EB00020E04DE95CE0B801C6010E942612CC0D6D
:102EC000DD2DD11D20E043E95CE0B801CE010E9478
:102ED000261217EE1F0D21E0412FB501C601019604
:102EE0000E94DC1221E0412FB501CE010E94DC12CC
:102EF0008AE08E0DEFE3F6E08583848383E0850D21
:102F00008683DF91CF911F910F91FF90EF90DF901B
:102F1000CF90BF90AF909F908F907F906F905F9079
:102F2000089520E040E759E16CE070E085E090E032
:102F30000E9426128CE00E94001480914C06909111
:102F40004D0683709927892B29F4809195018F5F15
:102F50008093950180919501883C10F01092950125
:102F600020E042E45BE06BE270E08DE090E00E94E4
:102F7000261220E04EE15CE06BE270E08BE690E030
:102F80000E94261221E049E56BE270E082E190E0C8
:102F90000E94741221E049E563E370E082E190E071
:102FA0000E9474128091950168E20E943337913239
:102FB00058F494E190934406909343069CE29093D6
:102FC000450687570E94E0130E94A70E882319F038
:102FD00082E0809312020895FC018081823019F012
:102FE000833039F0089581819281019792838183A2
:102FF0000895818192810196F9CFFC010190002012
:10300000E9F73197AF01481B590BBC018FE396E0FC
:103010000C94DD0E8F929F92AF92BF920F931F93ED
:10302000CF93DF93CDB7DEB7A1970FB6F894DEBF8D
:103030000FBECDBF19A2423008F44AE08E010F5DE9
:103040001F4F842E912CB12CA12CA50194010E941C
:103050000237E62FB901CA01EA30F4F4E05DD80185
:10306000EE938D01232B242B252B79F790E080E024
:10307000109719F0CD010E94FD17A1960FB6F89494
:10308000DEBF0FBECDBFDF91CF911F910F91BF90DB
:10309000AF909F908F900895E95CE1CF0C94FD175D
:1030A000BC0190E080E04AE00C940A18CF93C82F4E
:1030B000803120F485EF91E00E944E186C2F70E073
:1030C00090E080E040E1CF910C940A181F93CF93D9
:1030D000DF9381E0809344068093430682E38093EC
:1030E000450684E89BE00E94C51320E048E75BE0CA
:1030F00063E370E08AE190E00E94261220E046E659
:103100005BE063E370E081E490E00E94261221E03E
:103110004FE163E370E082E290E00E947412C0E04D
:10312000DAE018E380915B06C81708F5EC2FF0E0B1
:1031300080915A06C81778F4CD9F802D11248F5F97
:10314000809344068093430610934506EC5AF94F4A
:1031500080850E945618CD9FC001112421E047E0D0
:103160006FE370E001960E947412CF5FDBCFDF91B6
:10317000CF911F910895BF92CF92DF92EF92FF926D
:103180000F931F93CF93DF93B82E8091540690E056
:10319000FC01E852FE4FC081D0E02CE0B29EC00D91
:1031A000D11D1124C62ED12C960143E0220F331FCE
:1031B0004A95E1F78F529E4FFC01E080E20EF32E1C
:1031C000F11C01E029E04DE0B701CE010E9431136E
:1031D0000FE316E0F8011782CD5FC583C483E39443
:1031E000E68286E08C9DF0018D9DF00D1124EC5A55
:1031F000F94FEB0DF11D87850E94561881E0F8010B
:103200008783DF91CF911F910F91FF90EF90DF9017
:10321000CF90BF9008952F923F924F925F926F92FE
:103220007F928F929F92AF92BF92CF92DF92EF9256
:10323000FF920F931F93CF93DF9300D000D000D065
:103240001F92CDB7DEB750905406852D90E0FC015B
:10325000E852FE4F20812A838F529E4FFC0130801E
:103260004CE0549E402D11244C83F52DFF0FFF0F91
:10327000FF0FFD83B32CA22EC12C30E03F832E83A1
:10328000032D10E0D12CEB2CF12C41E0B7018E8105
:103290009F818D0D911D0E94D312D394D3948C8164
:1032A0008D1598F7D12CEA2CF12CB8016D0D711DFC
:1032B00041E0C7010E94D312D394D3949D819D1500
:1032C000A0F7C394ECE0AE0EF8E0BF0E5C14D0F6AD
:1032D00084E5682E86E0782E21E0230D2B8378018B
:1032E0006301412C4514B9F13A813D5F39834601B0
:1032F0008FE0880E911CAE80BF80212C251401F137
:1033000099819093440690934306EB81E0934506A0
:10331000F40181914F010E945618F40183A18F3F5F
:1033200039F020E040E65BE0B701C5010E941612CB
:103330002394F981F45FF9832CE0A20EB11CDECF57
:10334000439436E0C30ED11C8B81885F8B8398E059
:10335000E90EF11CC7CF8091FB068823E1F0813094
:1033600009F45AC027960FB6F894DEBF0FBECDBF42
:10337000DF91CF911F910F91FF90EF90DF90CF9051
:10338000BF90AF909F908F907F906F905F904F9085
:103390003F902F9008958091CF06823080F1823047
:1033A00009F72D812F5F809155064DE0B801EE8120
:1033B000FF813CE0839FE00DF11D1124CF010E94AD
:1033C0000513609156068091550627960FB6F8941E
:1033D000DEBF0FBECDBFDF91CF911F910F91FF9048
:1033E000EF90DF90CF90BF90AF909F908F907F90A5
:1033F0006F905F904F903F902F900C94BB184C8132
:103400004F5F60915606660F660F660F630D70E0A2
:1034100029E08E819F81D3CF10E007E0411609F4A7
:10342000A1CF1F821E828091590620915806089FC5
:10343000C00111248053994F820F911DFC0193818B
:10344000EE81FF81E60DF71D8785981304C0612F7B
:103450008E810E94BB182E813F812F5F3F4F3F839B
:103460002E83241500F31F5F36E0630E711CD6CF48
:1034700010928A008FEF87BD1092880008953F92C6
:103480004F925F926F927F928F929F92AF92BF9274
:10349000CF92DF92EF92FF920F931F93CF93DF9320
:1034A00000D000D000D01F92CDB7DEB77090D0060C
:1034B0001092FD061092FE0621E047E370E060E006
:1034C00080E590E00E94741221E047E368E070E03C
:1034D0008CE490E00E94741221E047E367E370E01F
:1034E00080E590E00E94741221E047E36FE370E012
:1034F0008CE490E00E94741221E043E269E070E005
:103500008CE490E00E94DC1220E04EE15CE070E090
:1035100060E08AE790E00E94261220E04EE15CE045
:1035200067E370E08AE790E00E94261220E04AE11B
:103530005CE069E270E08CE490E00E94261220E0FA
:1035400042E15CE070E060E08CE490E00E941612E2
:1035500020E042E15CE067E370E08CE490E00E94F0
:10356000161212E5109344061093430681E08093EF
:1035700045068CE09CE00E94C5131093440610930E
:10358000430688E38093450686E09CE00E94C513CD
:103590008091FF0690910007009709F4ADC0863036
:1035A000910570F480914C0690914D066FE070E0AB
:1035B0000E943F37883038F480E28093880030C022
:1035C0008835924020F485EF91E00E944E1880915A
:1035D000FF06909100070CE310E0B8010E943F370E
:1035E000CB010E94501887EF91E00E944E18809105
:1035F000FF0690910007B8010E943F370A9720F418
:1036000085EF91E00E944E188091FF06909100078F
:103610006CE370E00E943F370E94501810928800BF
:10362000F12CE12C37E0632E552453948091D00681
:10363000F81608F098C06F9C50011124F501EF5264
:10364000F94FDE011196862D01900D928A95E1F7D2
:10365000DA8000915A064D2D602FCE0103960E940C
:10366000B30E182FB5018D1105C08091FB0688237C
:1036700009F447C08D2D811B990BAC0180915B062D
:10368000801B990B841795070CF456C09BE0A90E7C
:10369000B11CF69C802D11249BE0492E480EFE01A2
:1036A00033964F012EE4C22ED12CF40131904F01FC
:1036B000FFEF3F16C9F0112309F452C001E027E0E3
:1036C0004AE0B501C6010E9431131092460681E01E
:1036D0008C0D809344068093430640924506832DCB
:1036E0000E945618111111502AE0C20ED11C80E818
:1036F000C816D104D1F61EC080E09CE00E94C5131C
:103700008DCF655F7F4F20E04BEC5BE08EE490E077
:103710000E9416127A948091FD068F5F8093FD06B9
:10372000125080E0143028F4E12FF0E0E152FE4F17
:103730008081E80EF3947ACF8091FB068111A6CFA9
:10374000655F7F4F20E046E95BE08EE490E00E94F9
:1037500016127A948091FE068F5F8093FE06EACF60
:1037600050924606B4CF8091FB068130F1F58091EE
:103770004C068F71F82E10915906B09058069AE0B9
:10378000B99E60011124EFE4CE0ED11CF7E01F9F1B
:10379000400111242BE0820E911C01E080E18F1585
:1037A00008F000E027E04AE0B401C60101970E945A
:1037B000311381E090E19F1508F480E08093460684
:1037C000C0924406C092430680924506E7E01E9FE1
:1037D000C00111248053994F8B0D911DFC018381F1
:1037E0000E94561881E0809346067092FC0620E005
:1037F0004BE85BE070E060E08BE690E00E94261210
:1038000086E7809344068093430681E080934506D3
:1038100060915706E61610F5162F1E191A30F8F0AB
:10382000612F70E090E080E04AE027960FB6F894B0
:10383000DEBF0FBECDBFDF91CF911F910F91FF90E3
:10384000EF90DF90CF90BF90AF909F908F907F9040
:103850006F905F904F903F900C940A1810E085EFA6
:1038600091E00E944E18DCCFCF93DF93C0914F06BA
:10387000C09580914E06C82380914C0690914D06CC
:103880006EE170E00E943F37892B79F48091020746
:10389000882359F08091FF0690910007009729F046
:1038A0000197909300078093FF068091010788237A
:1038B000E9F08150809301078091FB068823C9F0CD
:1038C000813009F406C10E940B190E943F1A0E9420
:1038D00066188091FF0690910007892B09F035C189
:1038E00086E080931202DF91CF9108950E94381AEA
:1038F000E3CF9091CF06913009F472C0D8F09230A6
:1039000089F1C3FF11C020915606E091550686E06B
:10391000289F900111242C5A394FE20FF32FF11DEB
:1039200083A98F3F09F498C0C2FFCDCF81E0809377
:10393000FB06C9CFC5FF07C080915506882319F043
:10394000815080935506C6FFDCCF809155062091AB
:1039500054062150330B821713069CF68F5F809319
:103960005506CFCFC7FF17C080915606882399F020
:10397000E0915506F0E02FEF280F36E0239FE00D91
:10398000F11D1124EC5AF94F815023A92F3F21F545
:1039900080935606B6CFC4FFB4CF809156062091CF
:1039A0005406622F6150770B861717060CF0A9CFCB
:1039B0008F5FE0915506F0E076E0879FE00DF11D06
:1039C0001124EC5AF94F821708F09BCF369635A593
:1039D0003F3FF1F28F5FF7CF36978111D5CF91CF6F
:1039E000C5FF18C0809155068823A1F02091560686
:1039F000EFEFE80FF0E036E0239FE00DF11D11241A
:103A0000E857F94F815022912F3F09F4A8CF811137
:103A1000F9CF77CFC6FF75CF809155062091540618
:103A2000622F6150770B861717060CF06ACF8F5FF5
:103A300030915606E82FF0E076E0379FE00DF11D5B
:103A40001124E957F94F821708F05BCF31913F3FBE
:103A500009F485CF8F5FF7CFD091FD06C091FE06A8
:103A600021E02093020780915A06A82FB0E0AC5ABB
:103A7000B94F378518963C9383AB8F5F80935A0676
:103A8000923090F09230A1F00E943F1A8091FD0692
:103A90008D1789F08CE0809301078FED87BD86E557
:103AA0009BE00E94E80F0FCF82E08093CF06ECCF1F
:103AB0002093CF06E9CF8091FE068C1709F403CF3F
:103AC0008CE08093010780E280938A008CE49BE085
:103AD000E8CFC5FF04C08091580681110DC0C6FD16
:103AE0000FC0C7FF1FC080915906882309F4EBCE91
:103AF000815080935906E7CE815080935806E3CEDB
:103B000080915806E091590697E0E99FF001112451
:103B1000EF52F94F21812150330B821713060CF716
:103B20008F5FEBCFC4FF0CC0809159062091D00667
:103B30002150330B821713060CF0C5CE8F5FD9CFFF
:103B4000C2FFC1CE1092FB06BECE8091FC06811151
:103B500002C089E0C6CE90915A0680915B06981308
:103B6000C2CE87E0BECECF92DF92EF92FF926B0182
:103B70007C01C114D104E104F10441F00E946236D9
:103B8000A70196010E94D0366B017C01C701B601E6
:103B9000FF90EF90DF90CF900895CF92DF92EF9259
:103BA000FF926B017C01C216D306E406F50664F4AD
:103BB000CA01B9016C197D098E099F090E94B31DC4
:103BC000C60ED71EE81EF91EC701B601FF90EF9082
:103BD000DF90CF9008950F931F93CF93DF93EC0165
:103BE000188281E0898382E08A8383E08B8384E08A
:103BF0008C8385E08D830CE02091540630E050E00A
:103C000040E060E070E0CB010E94CD1D162F2091B6
:103C1000540630E050E040E060E070E0CB010E94EC
:103C2000CD1DDE01A10FB11D8C91FE01E60FF11D2E
:103C300090819C9380830150F9F6DF91CF911F9181
:103C40000F910895CF93DF93D091C001ED2FF0E055
:103C5000ED55FE4F268D9085291780F465E070E0C4
:103C600080E090E00E94B31D8D2F880F880F8D0F8C
:103C7000860F8093C501DF91CF910895E3EAF1E0CB
:103C8000C4E090E020E0348D332309F151A1438555
:103C9000541790F4882369F065E070E080E090E0CC
:103CA0000E94B31D8C2F880F880F8C0F860F8550B4
:103CB000E0CFDC1788F7232FC1503197C111E3CF34
:103CC000211103C08EEF9923A1F28FEFD2CF91E0A3
:103CD000F3CF3F924F925F926F927F928F929F921B
:103CE000AF92BF92CF92DF92EF92FF920F931F930A
:103CF000CF93DF93F0904E0610914F0610951F2141
:103D0000012F86EA0E9469128091B201882309F48A
:103D10006BC180914C0690914D062091BB012223EE
:103D200021F0282F237009F05FC18F779927892B05
:103D300079F48091B301863018F48F5F8093B301DA
:103D40008091B301863021F488E099E10E94E80F68
:103D500020914C0630914D06C9018F739927892B0C
:103D600039F48091B201803C18F48F5F8093B201E6
:103D700020FD33C09091AF01E0E0F1E028E331E0B5
:103D800085AD4FEF480F433F08F05DC08F5F85AFB3
:103D900085AD803F08F091E034962E173F0781F7FC
:103DA0009093AF0180919401209102013091030121
:103DB00087FF4BC040910401509105014E5F5F4F5A
:103DC00050930501409304012F5F3F4F309303014F
:103DD000209302018F5F80939401C6E0D1E0AAE3B3
:103DE000AA2EA1E0BA2EC12CB2E0DB2E82E0882EF2
:103DF00093E0792E6624639425E0922E30E4532ECE
:103E0000809102019091030129813A81820F931FD1
:103E10002091B5013091B601821B930B9C0197FF55
:103E200004C022273327281B390B588169EF650FFF
:103E3000452F2C153D05E8F4623008F0A8C68C31FA
:103E40009105D4F02FC015AEA3CF882331F2409155
:103E500004015091050142505109509305014093CE
:103E60000401215031093093030120930201815054
:103E7000B2CF8C31910594F42091AF0124502330BE
:103E800068F0623058F02B85211107C05A869F8256
:103E90002885243010F42F5F28876B8647504230E6
:103EA00008F07AC62F81222309F476C621502F8389
:103EB0002D96AC16BD0609F0A3CF2CE1C216D10495
:103EC00060F48091AF018450833038F08091B2016A
:103ED000882319F081508093B201812F88709091CE
:103EE000B201992309F4CEC3811182C08091BB0134
:103EF00081117EC015FDD5C2F5FECFC282E0809350
:103F0000AF018091B5019091B6018D3391050CF40C
:103F100099C201979093B6018093B501C4C29330C2
:103F200089F0943009F050C6CE010E94EC174CC6BF
:103F30008230D1F7198648C68330E1F3F5CF84305B
:103F4000C9F3F2CF8530B1F3EFCF2B85222339F0BF
:103F500097FD03C088829F82ABCF7882FCCF6981B6
:103F60007A818B819C81681B790B77FF03C07195E7
:103F7000619571098D819E8196958795680F791F4E
:103F8000523089F038F45523E1F0513009F090CFE8
:103F9000888218C05730A9F05830D1F3533009F057
:103FA00087CF688201C018826FE070E080E090E007
:103FB0000E94B31D615F7F4F8F4F9F4F6F831986A4
:103FC00077CF78829B0150E040E07695679590E04E
:103FD00080E00E94CD1D6F8364E070E080E090E09F
:103FE0000E94B31D6887EBCFC12C32E0D32E75CF72
:103FF0008091B301833008F420C28091AF018230F8
:1040000009F4CBC1833009F4CBC18091BB0181118C
:104010000BC081E08093BB0187EA0E94691282E0B5
:1040200099E10E94E80F00E005FFC1C18091930172
:10403000882309F4B9C181508093930103FF28C0FC
:1040400087EA0E9469128091B30183508093B30183
:104050001092BB018091930145E0849FC00111241F
:1040600080509F4FFC01EA58FF4F2081213009F01A
:10407000AEC18B589F4FDC01EC91B4E0EB9FF00197
:104080001124E050FF4F25AF8CEF98E10E94E80F1C
:1040900002FF05C087EA0E9469121092BB011092CC
:1040A000760110927B01109280011092850110928E
:1040B0008A0110928F0110929201809100019091DB
:1040C000010164E770E00E945337EC0184579109C5
:1040D0000E94B815CE010E94B815CE018C589F4F92
:1040E0000E94B815A0E0AA2EA1E0BA2EF12CF5018D
:1040F00085ADC0910201D091030163AD74ADC60FCF
:10410000D71F92AD923009F4E6C2933009F400C390
:10411000913009F073C09E01255C3F4F2C3B310567
:1041200008F063C00E94EE13782E20E04AE551E1CA
:1041300062E170E0CE010E94261201E02BE144E131
:1041400069E170E0CE0103960E94311300E023E0A4
:104150004BE366E170E0CE010E9431132AE141E2B7
:104160006AE170E04E01F7E18F0E911CC4010E94DC
:10417000311321E049E367E170E0CE0101960E942E
:10418000741221E041E269E170E0C4010E947412FE
:1041900021E04BE169E170E0CE01C8960E94DC129B
:1041A00020E044E351E160E270E0CE0149960E94D4
:1041B000261220E04FEF50E160E270E0CE018796DA
:1041C0000E94261220E040EF50E16BE170E08E018A
:1041D0000A5F1F4FC8010E942612272D43E753E1B3
:1041E00061E270E0C8010E942612CE010E96BE0167
:1041F0006B5F7F4F8138910508F4E0C2F39424E0AF
:10420000A20EB11C47E0F41272CF8091040190918C
:10421000050163EF70E00E945337EC01CD5ED109D8
:104220008E0120E045EB54E165E370E0C8010E9497
:104230002612005E1F4F033F11059CF3F12C10E086
:1042400075E0B72EEAE0AE2EF2E09F2ECE01439647
:104250008339910508F043C0E12C00E02BE834E1FC
:104260004FE954E16CE070E0CE010E94361229E57E
:1042700034E141E754E164E170E0CE010E9436127E
:1042800080919001882359F180919101811327C079
:1042900066E170E080E090E00E94B31D2B013C01DC
:1042A000A2E14A0E511C611C711C642D70E08091CA
:1042B0004C0690914D060E943F37942D9695981785
:1042C00070F420E048E060E170E0CE010A960E94C0
:1042D00074126EEE640D60938800FF24F394CE0197
:1042E000099687379105D0F480919201B89EF0012C
:1042F0001124E050FF4FDF01AE58BF4F9E01295FF0
:104300003F4F11963C932E931296AC9212969C922C
:10431000EB58FF4F10838F5F809392011F5FCF5A3E
:10432000DF4FC93DB2E0DB070CF490CFF11002C0C3
:104330001092880080919001882319F08150809319
:1043400090014091B201429546954770425F00E06E
:1043500027E061E070E090E080E00E94311320E00F
:104360004FEF54E161E070E081E090E00E941612AE
:10437000C8E0D0E010E08091B20182958695877008
:10438000181708F01FC221E045E062E070E0CE019E
:104390000E94DC121F5F2296EECF1092AF0135CE45
:1043A00081E08093AF0131CE8091920144CE06FF2F
:1043B00045CE80919301209192012150330B8217B9
:1043C000130614F48F5F38CE1092930137CE22304B
:1043D00009F05ACE2FEF20939001FC01EB58FF4FCC
:1043E0002081209391016091020170910301E0E02E
:1043F000F1E044E351E08E589F4FAFEFB7E018E093
:1044000027813085260F371F5901CEE1AC0EB11C34
:10441000DCEBAD16B10450F4EC01A880B9802A158C
:104420003B054CF41683118A108AA5873D964E17DA
:104430005F0731F729CEB683F6CF82EF98E10E946D
:10444000E80F2DCE20910201309103012238310571
:10445000ECF480914C0680FF09C08091000190919E
:104460000101019690930101809300018091040164
:1044700090910501029690930501809304012F5FAE
:104480003F4F30930301209302010DC022383105C4
:1044900051F4833091053CF03CCD8091AF018230E6
:1044A00011F41092AF0116FF75C081E08093AF0147
:1044B00017FF37C0A090B501B090B60180910201FE
:1044C00090910301A81AB90AC0E0D1E02CE1822E34
:1044D00021E0922E06E08AAD81508330F0F48BAD5E
:1044E0009CAD9C0121503109A216B306B4F00B9685
:1044F0008A159B0594F08DAD81508F3E70F400932A
:10450000AF010E94F915EAADF0E0E251F74EE491F7
:104510008BAD8A19E80FE093940124968C169D06C2
:10452000D1F614FFBCCDA090B501B090B60180913A
:10453000040190910501A81AB90AC7E5D1E003E783
:1045400011E084E0F82E95E0992E888199819C01F4
:1045500023513109A216B3060CF47FC0275F3F4FE9
:10456000A216B3060CF079C09092AF018A199B098C
:104570009C012C50310937FF02C02F5F3F4F35950A
:104580002795209394010E94F91524960C171D0776
:10459000E1F685CDF6FE5BC083E08093AF018091AC
:1045A000B5019091B6018C33910534F40196909346
:1045B000B6018093B5017CCF2091020130910301B7
:1045C000293ADDEF3D07ECF080914C0680FF09C0F1
:1045D00080910001909101010197909301018093D6
:1045E00000018091040190910501029790930501CB
:1045F000809304012150310930930301209302017B
:1046000057CF8038910594F281E1809312028CE0BB
:104610008093110210921002809199018093980169
:10462000811146CF8091BD01882379F08091BE0130
:10463000882349F08091BF01811107C083E0815038
:1046400080939A0135CF82E0FACF81E0F8CF809154
:10465000AF01833009F02CCF28CF9C01285F3F4F5A
:104660002A153B050CF091CF275F3F4F2A153B05DC
:104670000CF48BCFF092AF018A199B099C01265F45
:104680003F4F79CF882309F40ACD8091B4019091EE
:104690009901911115C0865F8093B4018091B40196
:1046A000843681F484E180939B0110929C0181E126
:1046B00080931202109210028CE180931102EFCCD1
:1046C0008B5FEACF81E1809312028CE0809311022C
:1046D00010921002E4CC9E01205D3F4F213B31053A
:1046E00008F083CD0E94EE13182FE12C00E025E89E
:1046F00031E14BE752E162E170E0CE010E943612F7
:10470000212F43E753E161E270E0CE0106966BCDC5
:104710009E01225D3F4F2F3A310508F046C00E94AE
:10472000EE13182F20E044E370E060E0CE010E9419
:10473000DC1201E024E347E170E060E0CE01019685
:104740000E94311320E044E370E060E0CE0148961F
:104750000E94DC1221E044E370E060E0CE01499663
:104760000E94DC1200E024E343E170E060E0CE014F
:104770004A960E94311321E044E370E060E0CE01EC
:104780008D960E94DC1220E045E354E167E170E081
:10479000CE0103960E942612212F43E753E161E2E6
:1047A00070E0CE0104960E942612CE010C9681384C
:1047B000910508F023CDBE016D5F7F4F8F2D0E94C4
:1047C000DD151CCD4091B301440F475F00E027E0A9
:1047D00061E070E08AE690E00E94311320E047EF4C
:1047E00054E162E070E08BE690E00E941612C0E0B7
:1047F0008091B301C81770F48C2F90E0880F991F37
:1048000021E045E062E070E08D589F4F0E94DC128D
:10481000CF5FEECF84E3482E81E0582E90E0A92EA2
:1048200091E0B92E20E6822E912C38E1332E48E11A
:10483000642E712C56E0F52EF501C781D08580914C
:10484000020190910301C80FD91F1091B2011123E9
:1048500079F080914C0690914D062091BB01211179
:1048600063C0B3010E943F376F2D0E943337182F6A
:10487000D50116968C91823009F479C008F059C0A0
:10488000882309F48EC0813009F46AC0F50180895B
:10489000882361F0E12C00E026E635E14EE655E1A3
:1048A00069E170E0CE0105960E94361211FB2227C5
:1048B00020F9D50116968C91823009F495C008F044
:1048C00073C0882309F490C0813009F496C0FDE0DC
:1048D000AF0EB11C4A145B0409F0AECFC091B20117
:1048E000CC2361F080914C0690914D0668E170E018
:1048F0000E943F3766E00E943337C82F2091AF01F6
:104900008091B5019091B601273008F019C1E22FCE
:10491000F0E0E357FB4D0C946737C1250525BF2513
:104920000A250D250D251B25B4010E943F37632D57
:104930009CCF8330D1F099EF980F923008F0A6CF3A
:1049400001E0883009F000E0E02E2AED35E148E290
:1049500056E164E270E0CE010E9436121FEF96CF5E
:1049600014E001E064E270E007C01C5FFACF00E0F1
:1049700065E270E01130B1F7E02E28E735E148EA52
:1049800055E1CE0101960E943612E12E012F28E753
:1049900036E148EE56E16DE270E0CE010E9436123B
:1049A00075CF10E000E0DECF833039F187508230E0
:1049B00008F08DCFF5018585813448F480914C064F
:1049C00090914D068F719927813108F480CFE12CA9
:1049D00000E026E035E142E155E168E170E0CE011A
:1049E00004960E94361273CF40E255E16CE270E00B
:1049F000CE0140970E9416126ACF2E5F40E255E129
:104A00006CE270E0CE010E96F5CF01E0C4E070E0FC
:104A100060E09EC0CC5F01E0FACF01E0253009F0F4
:104A200000E0E02E22ED37E146E258E165E270E079
:104A30000E94361207C020E04CEB57E165E270E0BF
:104A40000E941612C7E5D1E003E711E08881998141
:104A50002091040130910501820F931F9C01235F77
:104A60003F4F2E38310538F420E04CE758E167E23B
:104A700070E00E94261224960C171D0739F78091CA
:104A8000BB01882311F180914C0690914D068F70E7
:104A900099278930D0F08091930125E0829FC00151
:104AA000112480509F4FFC01EC58FF4F608170E053
:104AB0008E589F4FE12C00E020EB38E14EEC58E19E
:104AC000DC018D919C910E9436128091B20181117E
:104AD0001DC000E023E140E664E170E080E190E089
:104AE0000E94311321E14EE565E170E081E190E043
:104AF0000E94051386E180934406809343068AE171
:104B00008093450688E998E10E94C513B0E3CB166F
:104B1000D104D0F580E38C1980938A00DF91CF9186
:104B20001F910F91FF90EF90DF90CF90BF90AF90CB
:104B30009F908F907F906F905F904F903F900895DF
:104B40000FEF31E020E0C13009F030E0632F722F29
:104B50006C5D7F4FE02E2AE537E14AE857E1019688
:104B60000E943612EC2E0C2F28E736E148EE56E173
:104B70006DE270E08091B5019091B60159CF00E0EF
:104B8000E0CF00E0C0E043CF10928A00C7CF6901B8
:104B90008C3191050CF470C92A85222311F0215023
:104BA0002A872F81222309F4D0C989858F5F8987BD
:104BB0009885923009F4C3C908F0B1C9992309F462
:104BC000B7C9913009F4B8C98F8181508F8370C9FA
:104BD00082E090E00E94BA36882331F03E9A3F9AF4
:104BE00081E0809321020895109221023E983F981F
:104BF000089583EA92E00E94BA3691E0813009F08C
:104C000090E0892F0895FF920F931F93CF93DF9326
:104C1000EC01F62E08811981C8010E94BA36F816F7
:104C200021F06F2DC8010E94C236CE01DF91CF91D5
:104C30001F910F91FF9008950F931F93CF93DF93D0
:104C400000D0CDB7DEB78B019A838983FB016081E9
:104C5000CE0101960E940326C8010F900F90DF91AC
:104C6000CF911F910F910895AF92BF92CF92DF9293
:104C7000EF92FF920F931F93CF93DF9300D0CDB7A6
:104C8000DEB710914F06109580914E0618230E94B2
:104C9000381A80919A018F3F09F074C015FF0AC03D
:104CA00080919701811102C082E001C08150809300
:104CB000970109C016FF50C080919701823009F01A
:104CC00049C0109297010E945D1680919701813032
:104CD00041F008F40FC2823009F4D4C2833009F0E5
:104CE0003DC280914C0690914D0660E370E00E94B9
:104CF0003F37893148F020E04CE75CE06FE070E03E
:104D00008BE590E00E94261280919A018F3F09F472
:104D100025C280919801813009F421C325E34AE13D
:104D200063E084E20E941B1787E80E94E0138091F1
:104D30009701813009F02EC360919A01E6E06E9FE1
:104D4000B0011124685F7F4F20E047E75CE089E213
:104D500090E091C28F5FABCF14FF08C080919701A4
:104D6000823009F0A1CF17FF08C0ABCF17FF05C0F5
:104D700080919701823009F4A4CF13FFA4CF109241
:104D80009A01A1CF12FF07C080919701833009F5E6
:104D900081E08093970180919701813009F4F8C0F8
:104DA000E0F0823009F48EC0833009F08CCF17FF19
:104DB0008CC18091C001E82FF0E0E454FE4F8823BD
:104DC00009F481CF815092919923C9F38093C00156
:104DD0007ACF8FEF80939A01DECF80919801811175
:104DE00056C017FF06C080919A01882311F08150A8
:104DF00007C014FF08C080919A01823020F48F5FB1
:104E000080939A0160CF13FF5ECF80919A018F5FEC
:104E100090E0DC01AD55BE4F59962C915997222355
:104E200029F082EF98E10E94E80F4DCF880F991F7B
:104E3000FC01ED55FE4F208131818091B0019091B0
:104E4000B1018217930768F341E059964C932817F4
:104E50003907A0F4821B930B9093B1018093B001AA
:104E60008091BD01882379F08091BE01882369F08B
:104E70008091BF01811127CF83E0B9CF1092B1019A
:104E80001092B001EDCF81E0B2CF82E0B0CF13FF3E
:104E90001ACF84E1809312021092990180919F01B0
:104EA0008A3021F08B3061F08AE001C08BE0809382
:104EB0009F0180919F0180939B0110929C0103CFE1
:104EC0008CE0F5CF90919801923009F04AC017FF1D
:104ED00004C080919A0181118ACF14FF06C080918D
:104EE0009A01811102C081E08BCF13FFECCE80913B
:104EF0009A01882329F0813009F0E5CE8FEF80CF29
:104F00008091B0019091B10120919D0130E0821714
:104F1000930708F486CF28173907D8F4821B930B20
:104F20009093B1018093B00165E070E080E090E083
:104F30000E94B31D862F880F880F680F685D6093ED
:104F40009D018091B4018B3048F08A508093B40168
:104F5000BACE1092B1011092B001E6CF1092B40116
:104F6000B2CE13FFB0CE96E19093120280939901D6
:104F70008091A001873021F0883041F087E001C0A6
:104F800088E08093A0018091A00195CF89E0F9CFBE
:104F900090919801913009F082C00E94F92517FF85
:104FA00008C090919A01992321F0915090939A0111
:104FB0008ACE14FF0FC090919A01492F50E023E050
:104FC00030E0811102C022E030E04217530714F4B0
:104FD0009F5FECCF13FF77CE80919A01813099F1DA
:104FE000C0F0823091F1833009F06DCE43EAE42EB7
:104FF00041E0F42E04EA12E0C8010E94BA36F7013B
:1050000081937F010F5F1F4F073CF2E01F07A1F75D
:1050100043C080E00E94221E8F3F49F482E18093CA
:10502000A20183E2809312028091A20144CF809179
:10503000A201843021F0853021F084E0F0CF85E0BA
:10504000EECF86E0ECCF83E032CE83EA92E09A8323
:10505000898361E0CE0101960E94032684EA92E0F2
:105060009A83898360E0CE0101960E94032653EA69
:10507000E52E51E0F52E04EA12E01A830983F701C8
:1050800061917F01CE0101960E9403260F5F1F4FA1
:10509000073CF2E01F0789F785E89CE0C4CE13FFC8
:1050A00012CE9FE190931202809399019091A101F9
:1050B000913039F0923039F08093A1018091A101B3
:1050C000FACE82E0F9CF83E0F7CF14FF0FC08091D2
:1050D000C0018F5FE82FF0E0E454FE4F843008F009
:1050E000F2CD9191911172CE8F5FF8CF13FFEBCD7E
:1050F00081E0DDCD80914C0690914D0660E370E03B
:105100000E943F37893148F020E04CE75CE06DE0D9
:1051100070E08DE390E00E94261280919A018F3F0B
:10512000E9F080919801882309F44FC025E349E113
:1051300064E18DE20E941B1760919A0186E0689FEE
:10514000B0011124675E7F4F20E047E75CE081E318
:1051500090E00E94161287E80E94E01320E04EE2E1
:105160005CE062E370E081E090E00E9426121AE0C9
:10517000109344061093430682E380934506809182
:10518000B0019091B1010E94501810934406109301
:10519000430689E3809345066091B40170E090E096
:1051A00080E04AE00E940A188EEF91E00E944E18BB
:1051B0000F900F90DF91CF911F910F91FF90EF9083
:1051C000DF90CF90BF90AF90089540E064E187E218
:1051D0000E94981680E3809344068093430687E1FB
:1051E000809345062DEBE22E21E0F22E39EAC32E04
:1051F00031E0D32E03EA11E0F70181917F018111A3
:105200003DC0F801A280B38084E80E94E013C5018C
:105210000E9450188CE29CE00E94C5130E5F1F4F45
:10522000C016D10649F78FE2809344068093430667
:105230008DE2809345068CE69CE00E94C513ECEB62
:10524000F1E020EC31E080E09191911101C08F5F9D
:105250002E173F07C9F7882309F480CF60919A0180
:10526000F6E06F9FB0011124675E7F4F20E047E7B3
:105270005CE08BE290E00E94161270CF88E80E94FA
:10528000E013CCCF80914C0690914D0660E370E026
:105290000E943F37893148F020E04CE75CE066E34C
:1052A00070E087E590E00E94261280919A018F3F7E
:1052B00009F454CF809198018230D9F025E349E177
:1052C00063E081E10E941B1760919A0186E0689F6C
:1052D000B0011124685F7F4F20E047E75CE085E183
:1052E00090E00E94161287E80E94E01310929A0143
:1052F00035CF41E063E083E00E94981687E0809319
:105300004406809343068093450683E59CE00E9413
:10531000C51360919D0170E090E080E04AE00E943A
:105320000A188CE49CE00E94C51388E1809344062F
:10533000809343068CE18093450683E49CE00E94C1
:10534000C51360919A0196E0699FB0011124605FD6
:105350007F4F20E047E75CE087E090E08CCF0E9441
:10536000F925182F40E2811101C04AE125E363E0ED
:1053700084E20E941B1786E80E94E0138CEF91E004
:105380000E944E18112309F4D2CC8EE39CE00E94B7
:10539000C513CDCC8CEBC82E81E0D82E93EAE92E34
:1053A00091E0F92EF60180E09191911101C08F5F9B
:1053B00091E0E03CF907C1F749E1811101C04FE1FB
:1053C0002EE362E18DE20E941B1712E8F701818D46
:1053D000882329F1812F0E94E013F701868D8A30FE
:1053E00020F488E092E00E944E18F70180858A3010
:1053F00020F488E092E00E944E18F701868D90E03C
:105400000E94501889EF91E00E944E18F7018085A4
:1054100090E00E9450188BEF91E00E94FD17FFEF83
:10542000EF1AFF0A1F5F163889F69091C00180E0DD
:1054300060E0981739F0F60121916F0121116F5F3B
:105440008F5FF7CFF6E06F9FB0011124695E7F4F49
:1054500020E047E75CE081E390E00DCF0F930FB7CA
:105460000F931F9211248F939F93EF93FF93E7E382
:10547000F2E08091360291E08D5F8D3710F08D570C
:105480009395809336028081890F80839181911D4D
:1054900091830281011D02838381811D83830927FA
:1054A0000F70092702950093350235D081110093C2
:1054B0003302803989F400913402901B963070F0E9
:1054C00087E7809300088093010888E198E0809343
:1054D000600090936000FFCF90933402809132027D
:1054E000815018F08093320259F3EBE3F2E08081AF
:1054F000918101968083918382819381811D911D89
:1055000082839383FF91EF919F918F911F900F91D1
:105510000FBF0F9118958FB18095807F669B886033
:105520001C9B846008951F920F920FB60F92112456
:105530002F933F934F935F936F937F938F939F939B
:10554000AF93BF93EF93FF9380912E0290912F0220
:10555000A0913002B0913102892B8A2B8B2B09F458
:1055600040C080912D0281110BC088B190E4892741
:1055700088B980912C02882319F088B1805888B9A5
:1055800080912E0290912F02A0913002B0913102B1
:10559000181619061A061B069CF480912E0290918B
:1055A0002F02A0913002B09131020197A109B109F7
:1055B00080932E0290932F02A0933002B093310279
:1055C000FF91EF91BF91AF919F918F917F916F91DB
:1055D0005F914F913F912F910F900FBE0F901F90B1
:1055E00018950E94430FECCF1F920F920FB60F92A7
:1055F00011248F929F92AF92BF92CF92DF92EF923F
:10560000FF920F931F932F933F934F935F936F934B
:105610007F938F939F93AF93BF93CF93DF93EF933A
:10562000FF93C0900C02D0900D02E0900E02F0901B
:105630000F023FEFC31AD30AE30AF30AC0920C0227
:10564000D0920D02E0920E02F0920F0280911002B1
:10565000813011F108F44BC0823009F467C0FF912A
:10566000EF91DF91CF91BF91AF919F918F917F91FA
:105670006F915F914F913F912F911F910F91FF90EB
:10568000EF90DF90CF90BF90AF909F908F900F9052
:105690000FBE0F901F9018957727F7FC7A956F2D06
:1056A0005E2D4D2DD701C601F2E1B595A7959795D1
:1056B0008795FA95D1F7842B8C9D802D1124970125
:1056C0008601A3E03595279517950795AA95D1F7FB
:1056D000017280234C21B4E1F594E794D794C794E8
:1056E000BA95D1F7C42AC826C092CF00B8CF772781
:1056F000F7FC7A956F2D5E2D4D2DD701C60177E011
:10570000B595A795979587957A95D1F721E032E0E1
:10571000C316D104E104F1040CF420E0822B942F91
:105720009C21892B4C0DC82EC42ADECFDC2DD572CE
:10573000D701C60146E0B595A795979587954A95F7
:10574000D1F7D827460157015BE0B594A794979409
:1057500087945A95D1F7CC2DC825CC0DC701B60139
:1057600028E130E040E050E00E94D036672B682B03
:10577000692B19F586E090E0A0E0B0E08821C89E92
:10578000C0191124D701C601880F991FAA1FBB1F7A
:10579000B701A6014675527066277727452B462B21
:1057A000472B81F024E0F594E794D794C7942A9589
:1057B000D1F7C822CC26CD2A97CF82E090E0A0E096
:1057C000B0E0DCCF9AE0F594E794D794C7949A952B
:1057D000D1F7EFCF1F920F920FB60F9211242F9394
:1057E0003F934F935F936F937F938F939F93AF9369
:1057F000BF93EF93FF930E94F42AFF91EF91BF9123
:10580000AF919F918F917F916F915F914F913F9158
:105810002F910F900FBE0F901F901895E9E4F6E0BE
:105820001582168280E1878314821382118683EFAA
:1058300091E09183808381E792E1909323028093AA
:10584000220280E090E89093200280931F02469805
:105850003E9A47983F9AEFE3F6E01382128287EE72
:1058600091E09183808386E0818781E08087158243
:105870001682148287831092CF061092FB06109234
:10588000FC061092FD061092FE0610920007109280
:10589000FF0610920107109202070895CDB7DEB7F8
:1058A000C555D109DEBFCDBF11E01093E0001092C5
:1058B000E2001092E10080E28093D8001092D700BD
:1058C00080916500806880936500789483E084BD52
:1058D00083E085BD10936E00E1E8F0E083E0808313
:1058E000E0E881E08083E1E983E08083E0E981E032
:1058F0008083E1EC87E08083E3EC81E08083E0EC6F
:1059000082E08083E2EC81E08083EAE787E08083C5
:1059100080688083559A209A5D9A289A8C9A8498F8
:105920008AE090E00E9446127C990EC0F89487E7C6
:105930008093000880930108A89588E18093600017
:1059400088E080936000FFCF81EC80937C0085B17C
:10595000806F85B984B1877E84B984B1876E84B93C
:105960005E9A5F988AB1806D8AB9769A6E9881B393
:10597000806F81BB899880B38D7080BB80E58CBDC2
:105980001DBD85E090E00E9446125F9A85E090E0A0
:105990000E9446125E985C98E8E2F6E084918EBD23
:1059A00000000DB407FEFDCF319606E0E533F007A9
:1059B000A9F75C9A81E8809364008091650081601A
:1059C0008093650002E010E00E94611282FF3EC0F9
:1059D0002D980E94611284788438B9F42D9A88EC4D
:1059E00090E00E9446122F981A8309836FEFCE0130
:1059F00001960E94032684EF91E00E9446122F9A9E
:105A00000E94611284788438D9F30E9461128471F3
:105A10008431B9F42D9A88EC90E00E9446122E98B9
:105A20001A83098360E0CE0101960E94032684EF69
:105A300091E00E9446122E9A0E9461128471843174
:105A4000D9F388EC90E00E944612BECF2D9A84E1F3
:105A500080935006809164008E7F809364008091D3
:105A60007A00806480937A0080917A0086FDFCCF72
:105A700000917800109179000E940A0FAB01BC01DF
:105A8000C801B0E0A0E0DC01992788278C019D01C6
:105A9000040F151F261F371FC901B801209164008C
:105AA000216020936400611571058105910511F055
:105AB0000E94B1360E94E8250E94E82581EA92E022
:105AC0000E94BA36182F82EA92E00E94BA36133446
:105AD00011F48834A1F0198260ED71E081EA92E05E
